{
  "_format": "hh-sol-artifact-1",
  "contractName": "IdentityRegistry",
  "sourceName": "contracts/IdentityRegistry.sol",
  "abi": [
    {
      "inputs": [],
      "name": "InvalidAgent",
      "type": "error"
    },
    {
      "inputs": [],
      "name": "UnauthorizedRegistrar",
      "type": "error"
    },
    {
      "anonymous": false,
      "inputs": [
        {
          "indexed": true,
          "internalType": "address",
          "name": "agent",
          "type": "address"
        },
        {
          "indexed": false,
          "internalType": "string",
          "name": "agentURI",
          "type": "string"
        },
        {
          "indexed": true,
          "internalType": "address",
          "name": "registrar",
          "type": "address"
        }
      ],
      "name": "AgentRegistered",
      "type": "event"
    },
    {
      "inputs": [
        {
          "internalType": "address",
          "name": "agentAddress",
          "type": "address"
        }
      ],
      "name": "getAgent",
      "outputs": [
        {
          "internalType": "string",
          "name": "agentURI",
          "type": "string"
        }
      ],
      "stateMutability": "view",
      "type": "function"
    },
    {
      "inputs": [
        {
          "internalType": "address",
          "name": "agentAddress",
          "type": "address"
        },
        {
          "internalType": "string",
          "name": "agentURI",
          "type": "string"
        }
      ],
      "name": "registerAgent",
      "outputs": [],
      "stateMutability": "nonpayable",
      "type": "function"
    }
  ],
  "bytecode": "0x608060405234801561001057600080fd5b506104c2806100206000396000f3fe608060405234801561001057600080fd5b50600436106100365760003560e01c806322b833d81461003b578063fb3551ff14610050575b600080fd5b61004e610049366004610207565b610079565b005b61006361005e36600461028a565b61013f565b60405161007091906102ac565b60405180910390f35b6001600160a01b0383166100a05760405163bebdc75760e01b815260040160405180910390fd5b336001600160a01b038416146100c957604051631a88efbf60e11b815260040160405180910390fd5b6001600160a01b03831660009081526020819052604090206100ec82848361039c565b50336001600160a01b0316836001600160a01b03167f6cf3badcf1a10c54709f13ad2475d8b3a44ebcb1b93b38e7257f985053235040848460405161013292919061045d565b60405180910390a3505050565b6001600160a01b038116600090815260208190526040902080546060919061016690610311565b80601f016020809104026020016040519081016040528092919081815260200182805461019290610311565b80156101df5780601f106101b4576101008083540402835291602001916101df565b820191906000526020600020905b8154815290600101906020018083116101c257829003601f168201915b50505050509050919050565b80356001600160a01b038116811461020257600080fd5b919050565b60008060006040848603121561021c57600080fd5b610225846101eb565b9250602084013567ffffffffffffffff8082111561024257600080fd5b818601915086601f83011261025657600080fd5b81358181111561026557600080fd5b87602082850101111561027757600080fd5b6020830194508093505050509250925092565b60006020828403121561029c57600080fd5b6102a5826101eb565b9392505050565b60006020808352835180602085015260005b818110156102da578581018301518582016040015282016102be565b506000604082860101526040601f19601f8301168501019250505092915050565b634e487b7160e01b600052604160045260246000fd5b600181811c9082168061032557607f821691505b60208210810361034557634e487b7160e01b600052602260045260246000fd5b50919050565b601f821115610397576000816000526020600020601f850160051c810160208610156103745750805b601f850160051c820191505b8181101561039357828155600101610380565b5050505b505050565b67ffffffffffffffff8311156103b4576103b46102fb565b6103c8836103c28354610311565b8361034b565b6000601f8411600181146103fc57600085156103e45750838201355b600019600387901b1c1916600186901b178355610456565b600083815260209020601f19861690835b8281101561042d578685013582556020948501946001909201910161040d565b508682101561044a5760001960f88860031b161c19848701351681555b505060018560011b0183555b5050505050565b60208152816020820152818360408301376000818301604090810191909152601f909201601f1916010191905056fea2646970667358221220385ce5332bf7f7430474bcc65132da9ecdf9a216b96b94e88bf32e2a3ba1377264736f6c63430008180033",
  "linkReferences": {},
  "deployedLinkReferences": {}
}