{"contracts/MockTradeExecutorV2.sol":{"MockTradeExecutorV2":{"abi":[{"inputs":[{"internalType":"address","name":"oracleAddress","type":"address"},{"internalType":"address","name":"validationRegistryAddress","type":"address"}],"stateMutability":"nonpayable","type":"constructor"},{"inputs":[],"name":"InvalidAddress","type":"error"},{"inputs":[],"name":"NotOracle","type":"error"},{"inputs":[],"name":"ValidationAlreadyConsumed","type":"error"},{"inputs":[],"name":"ValidationNotVerified","type":"error"},{"anonymous":false,"inputs":[{"indexed":false,"internalType":"string","name":"action","type":"string"},{"indexed":true,"internalType":"uint256","name":"validationRequestId","type":"uint256"},{"indexed":true,"internalType":"address","name":"executor","type":"address"}],"name":"TradeExecuted","type":"event"},{"inputs":[{"internalType":"uint256","name":"validationRequestId","type":"uint256"}],"name":"buy","outputs":[],"stateMutability":"nonpayable","type":"function"},{"inputs":[{"internalType":"uint256","name":"","type":"uint256"}],"name":"consumedValidationRequests","outputs":[{"internalType":"bool","name":"","type":"bool"}],"stateMutability":"view","type":"function"},{"inputs":[],"name":"oracle","outputs":[{"internalType":"address","name":"","type":"address"}],"stateMutability":"view","type":"function"},{"inputs":[{"internalType":"uint256","name":"validationRequestId","type":"uint256"}],"name":"sell","outputs":[],"stateMutability":"nonpayable","type":"function"},{"inputs":[],"name":"validationRegistry","outputs":[{"internalType":"contract IValidationRegistry","name":"","type":"address"}],"stateMutability":"view","type":"function"}],"evm":{"bytecode":{"linkReferences":{},"object":"60c060405234801561001057600080fd5b506040516104e33803806104e383398101604081905261002f9161009d565b6001600160a01b038216158061004c57506001600160a01b038116155b1561006a5760405163e6c4247b60e01b815260040160405180910390fd5b6001600160a01b039182166080521660a0526100d0565b80516001600160a01b038116811461009857600080fd5b919050565b600080604083850312156100b057600080fd5b6100b983610081565b91506100c760208401610081565b90509250929050565b60805160a0516103db61010860003960008181606101526102b801526000818160d80152818161012d01526101da01526103db6000f3fe608060405234801561001057600080fd5b50600436106100575760003560e01c80634c6b993a1461005c5780637763f1de146100a05780637dc0d1d0146100d3578063d96a094a146100fa578063e4849b321461010f575b600080fd5b6100837f000000000000000000000000000000000000000000000000000000000000000081565b6040516001600160a01b0390911681526020015b60405180910390f35b6100c36100ae366004610363565b60006020819052908152604090205460ff1681565b6040519015158152602001610097565b6100837f000000000000000000000000000000000000000000000000000000000000000081565b61010d610108366004610363565b610122565b005b61010d61011d366004610363565b6101cf565b336001600160a01b037f0000000000000000000000000000000000000000000000000000000000000000161461016b57604051631bc2178f60e01b815260040160405180910390fd5b61017481610272565b336001600160a01b0316817f9dfeeeceb399e16f14bc424bcfdeae738d9b6dfe9ca1d658d32ad4c1dbeb0baa6040516101c49060208082526003908201526242555960e81b604082015260600190565b60405180910390a350565b336001600160a01b037f0000000000000000000000000000000000000000000000000000000000000000161461021857604051631bc2178f60e01b815260040160405180910390fd5b61022181610272565b336001600160a01b0316817f9dfeeeceb399e16f14bc424bcfdeae738d9b6dfe9ca1d658d32ad4c1dbeb0baa6040516101c49060208082526004908201526314d1531360e21b604082015260600190565b60008181526020819052604090205460ff16156102a257604051630f0aa29d60e11b815260040160405180910390fd5b6040516337b6d96b60e01b8152600481018290527f00000000000000000000000000000000000000000000000000000000000000006001600160a01b0316906337b6d96b90602401602060405180830381865afa158015610307573d6000803e3d6000fd5b505050506040513d601f19601f8201168201806040525081019061032b919061037c565b61034857604051637787415d60e01b815260040160405180910390fd5b6000908152602081905260409020805460ff19166001179055565b60006020828403121561037557600080fd5b5035919050565b60006020828403121561038e57600080fd5b8151801515811461039e57600080fd5b939250505056fea264697066735822122039daaf02066c0ad207ed58c501e0c1eb3128e8186d0e170996111b0c0a1ee93564736f6c63430008180033","opcodes":"PUSH1 0xC0 PUSH1 0x40 MSTORE CALLVALUE DUP1 ISZERO PUSH2 0x10 JUMPI PUSH1 0x0 DUP1 REVERT JUMPDEST POP PUSH1 0x40 MLOAD PUSH2 0x4E3 CODESIZE SUB DUP1 PUSH2 0x4E3 DUP4 CODECOPY DUP2 ADD PUSH1 0x40 DUP2 SWAP1 MSTORE PUSH2 0x2F SWAP2 PUSH2 0x9D JUMP JUMPDEST PUSH1 0x1 PUSH1 0x1 PUSH1 0xA0 SHL SUB DUP3 AND ISZERO DUP1 PUSH2 0x4C JUMPI POP PUSH1 0x1 PUSH1 0x1 PUSH1 0xA0 SHL SUB DUP2 AND ISZERO JUMPDEST ISZERO PUSH2 0x6A JUMPI PUSH1 0x40 MLOAD PUSH4 0xE6C4247B PUSH1 0xE0 SHL DUP2 MSTORE PUSH1 0x4 ADD PUSH1 0x40 MLOAD DUP1 SWAP2 SUB SWAP1 REVERT JUMPDEST PUSH1 0x1 PUSH1 0x1 PUSH1 0xA0 SHL SUB SWAP2 DUP3 AND PUSH1 0x80 MSTORE AND PUSH1 0xA0 MSTORE PUSH2 0xD0 JUMP JUMPDEST DUP1 MLOAD PUSH1 0x1 PUSH1 0x1 PUSH1 0xA0 SHL SUB DUP2 AND DUP2 EQ PUSH2 0x98 JUMPI PUSH1 0x0 DUP1 REVERT JUMPDEST SWAP2 SWAP1 POP JUMP JUMPDEST PUSH1 0x0 DUP1 PUSH1 0x40 DUP4 DUP6 SUB SLT ISZERO PUSH2 0xB0 JUMPI PUSH1 0x0 DUP1 REVERT JUMPDEST PUSH2 0xB9 DUP4 PUSH2 0x81 JUMP JUMPDEST SWAP2 POP PUSH2 0xC7 PUSH1 0x20 DUP5 ADD PUSH2 0x81 JUMP JUMPDEST SWAP1 POP SWAP3 POP SWAP3 SWAP1 POP JUMP JUMPDEST PUSH1 0x80 MLOAD PUSH1 0xA0 MLOAD PUSH2 0x3DB PUSH2 0x108 PUSH1 0x0 CODECOPY PUSH1 0x0 DUP2 DUP2 PUSH1 0x61 ADD MSTORE PUSH2 0x2B8 ADD MSTORE PUSH1 0x0 DUP2 DUP2 PUSH1 0xD8 ADD MSTORE DUP2 DUP2 PUSH2 0x12D ADD MSTORE PUSH2 0x1DA ADD MSTORE PUSH2 0x3DB PUSH1 0x0 RETURN INVALID PUSH1 0x80 PUSH1 0x40 MSTORE CALLVALUE DUP1 ISZERO PUSH2 0x10 JUMPI PUSH1 0x0 DUP1 REVERT JUMPDEST POP PUSH1 0x4 CALLDATASIZE LT PUSH2 0x57 JUMPI PUSH1 0x0 CALLDATALOAD PUSH1 0xE0 SHR DUP1 PUSH4 0x4C6B993A EQ PUSH2 0x5C JUMPI DUP1 PUSH4 0x7763F1DE EQ PUSH2 0xA0 JUMPI DUP1 PUSH4 0x7DC0D1D0 EQ PUSH2 0xD3 JUMPI DUP1 PUSH4 0xD96A094A EQ PUSH2 0xFA JUMPI DUP1 PUSH4 0xE4849B32 EQ PUSH2 0x10F JUMPI JUMPDEST PUSH1 0x0 DUP1 REVERT JUMPDEST PUSH2 0x83 PUSH32 0x0 DUP2 JUMP JUMPDEST PUSH1 0x40 MLOAD PUSH1 0x1 PUSH1 0x1 PUSH1 0xA0 SHL SUB SWAP1 SWAP2 AND DUP2 MSTORE PUSH1 0x20 ADD JUMPDEST PUSH1 0x40 MLOAD DUP1 SWAP2 SUB SWAP1 RETURN JUMPDEST PUSH2 0xC3 PUSH2 0xAE CALLDATASIZE PUSH1 0x4 PUSH2 0x363 JUMP JUMPDEST PUSH1 0x0 PUSH1 0x20 DUP2 SWAP1 MSTORE SWAP1 DUP2 MSTORE PUSH1 0x40 SWAP1 KECCAK256 SLOAD PUSH1 0xFF AND DUP2 JUMP JUMPDEST PUSH1 0x40 MLOAD SWAP1 ISZERO ISZERO DUP2 MSTORE PUSH1 0x20 ADD PUSH2 0x97 JUMP JUMPDEST PUSH2 0x83 PUSH32 0x0 DUP2 JUMP JUMPDEST PUSH2 0x10D PUSH2 0x108 CALLDATASIZE PUSH1 0x4 PUSH2 0x363 JUMP JUMPDEST PUSH2 0x122 JUMP JUMPDEST STOP JUMPDEST PUSH2 0x10D PUSH2 0x11D CALLDATASIZE PUSH1 0x4 PUSH2 0x363 JUMP JUMPDEST PUSH2 0x1CF JUMP JUMPDEST CALLER PUSH1 0x1 PUSH1 0x1 PUSH1 0xA0 SHL SUB PUSH32 0x0 AND EQ PUSH2 0x16B JUMPI PUSH1 0x40 MLOAD PUSH4 0x1BC2178F PUSH1 0xE0 SHL DUP2 MSTORE PUSH1 0x4 ADD PUSH1 0x40 MLOAD DUP1 SWAP2 SUB SWAP1 REVERT JUMPDEST PUSH2 0x174 DUP2 PUSH2 0x272 JUMP JUMPDEST CALLER PUSH1 0x1 PUSH1 0x1 PUSH1 0xA0 SHL SUB AND DUP2 PUSH32 0x9DFEEECEB399E16F14BC424BCFDEAE738D9B6DFE9CA1D658D32AD4C1DBEB0BAA PUSH1 0x40 MLOAD PUSH2 0x1C4 SWAP1 PUSH1 0x20 DUP1 DUP3 MSTORE PUSH1 0x3 SWAP1 DUP3 ADD MSTORE PUSH3 0x425559 PUSH1 0xE8 SHL PUSH1 0x40 DUP3 ADD MSTORE PUSH1 0x60 ADD SWAP1 JUMP JUMPDEST PUSH1 0x40 MLOAD DUP1 SWAP2 SUB SWAP1 LOG3 POP JUMP JUMPDEST CALLER PUSH1 0x1 PUSH1 0x1 PUSH1 0xA0 SHL SUB PUSH32 0x0 AND EQ PUSH2 0x218 JUMPI PUSH1 0x40 MLOAD PUSH4 0x1BC2178F PUSH1 0xE0 SHL DUP2 MSTORE PUSH1 0x4 ADD PUSH1 0x40 MLOAD DUP1 SWAP2 SUB SWAP1 REVERT JUMPDEST PUSH2 0x221 DUP2 PUSH2 0x272 JUMP JUMPDEST CALLER PUSH1 0x1 PUSH1 0x1 PUSH1 0xA0 SHL SUB AND DUP2 PUSH32 0x9DFEEECEB399E16F14BC424BCFDEAE738D9B6DFE9CA1D658D32AD4C1DBEB0BAA PUSH1 0x40 MLOAD PUSH2 0x1C4 SWAP1 PUSH1 0x20 DUP1 DUP3 MSTORE PUSH1 0x4 SWAP1 DUP3 ADD MSTORE PUSH4 0x14D15313 PUSH1 0xE2 SHL PUSH1 0x40 DUP3 ADD MSTORE PUSH1 0x60 ADD SWAP1 JUMP JUMPDEST PUSH1 0x0 DUP2 DUP2 MSTORE PUSH1 0x20 DUP2 SWAP1 MSTORE PUSH1 0x40 SWAP1 KECCAK256 SLOAD PUSH1 0xFF AND ISZERO PUSH2 0x2A2 JUMPI PUSH1 0x40 MLOAD PUSH4 0xF0AA29D PUSH1 0xE1 SHL DUP2 MSTORE PUSH1 0x4 ADD PUSH1 0x40 MLOAD DUP1 SWAP2 SUB SWAP1 REVERT JUMPDEST PUSH1 0x40 MLOAD PUSH4 0x37B6D96B PUSH1 0xE0 SHL DUP2 MSTORE PUSH1 0x4 DUP2 ADD DUP3 SWAP1 MSTORE PUSH32 0x0 PUSH1 0x1 PUSH1 0x1 PUSH1 0xA0 SHL SUB AND SWAP1 PUSH4 0x37B6D96B SWAP1 PUSH1 0x24 ADD PUSH1 0x20 PUSH1 0x40 MLOAD DUP1 DUP4 SUB DUP2 DUP7 GAS STATICCALL ISZERO DUP1 ISZERO PUSH2 0x307 JUMPI RETURNDATASIZE PUSH1 0x0 DUP1 RETURNDATACOPY RETURNDATASIZE PUSH1 0x0 REVERT JUMPDEST POP POP POP POP PUSH1 0x40 MLOAD RETURNDATASIZE PUSH1 0x1F NOT PUSH1 0x1F DUP3 ADD AND DUP3 ADD DUP1 PUSH1 0x40 MSTORE POP DUP2 ADD SWAP1 PUSH2 0x32B SWAP2 SWAP1 PUSH2 0x37C JUMP JUMPDEST PUSH2 0x348 JUMPI PUSH1 0x40 MLOAD PUSH4 0x7787415D PUSH1 0xE0 SHL DUP2 MSTORE PUSH1 0x4 ADD PUSH1 0x40 MLOAD DUP1 SWAP2 SUB SWAP1 REVERT JUMPDEST PUSH1 0x0 SWAP1 DUP2 MSTORE PUSH1 0x20 DUP2 SWAP1 MSTORE PUSH1 0x40 SWAP1 KECCAK256 DUP1 SLOAD PUSH1 0xFF NOT AND PUSH1 0x1 OR SWAP1 SSTORE JUMP JUMPDEST PUSH1 0x0 PUSH1 0x20 DUP3 DUP5 SUB SLT ISZERO PUSH2 0x375 JUMPI PUSH1 0x0 DUP1 REVERT JUMPDEST POP CALLDATALOAD SWAP2 SWAP1 POP JUMP JUMPDEST PUSH1 0x0 PUSH1 0x20 DUP3 DUP5 SUB SLT ISZERO PUSH2 0x38E JUMPI PUSH1 0x0 DUP1 REVERT JUMPDEST DUP2 MLOAD DUP1 ISZERO ISZERO DUP2 EQ PUSH2 0x39E JUMPI PUSH1 0x0 DUP1 REVERT JUMPDEST SWAP4 SWAP3 POP POP POP JUMP INVALID LOG2 PUSH5 0x6970667358 0x22 SLT KECCAK256 CODECOPY 0xDA 0xAF MUL MOD PUSH13 0xAD207ED58C501E0C1EB3128E8 XOR PUSH14 0xE170996111B0C0A1EE93564736F PUSH13 0x63430008180033000000000000 "},"methodIdentifiers":{"buy(uint256)":"d96a094a","consumedValidationRequests(uint256)":"7763f1de","oracle()":"7dc0d1d0","sell(uint256)":"e4849b32","validationRegistry()":"4c6b993a"}}}}}