{"contracts/MockTradeExecutor.sol":{"MockTradeExecutor":{"abi":[{"inputs":[],"stateMutability":"nonpayable","type":"constructor"},{"inputs":[],"name":"NotOracle","type":"error"},{"anonymous":false,"inputs":[{"indexed":false,"internalType":"string","name":"action","type":"string"}],"name":"TradeExecuted","type":"event"},{"inputs":[],"name":"buy","outputs":[],"stateMutability":"nonpayable","type":"function"},{"inputs":[],"name":"sell","outputs":[],"stateMutability":"nonpayable","type":"function"}],"evm":{"bytecode":{"linkReferences":{},"object":"608060405234801561001057600080fd5b5061010e806100206000396000f3fe6080604052348015600f57600080fd5b506004361060325760003560e01c806345710074146037578063a6f2ae3a14603f575b600080fd5b603d6045565b005b603d6094565b7f716fc2beb340c020954671f86fb23241fc9850cf6ab02f6d5d700386e34c2000604051608a9060208082526004908201526314d1531360e21b604082015260600190565b60405180910390a1565b7f716fc2beb340c020954671f86fb23241fc9850cf6ab02f6d5d700386e34c2000604051608a9060208082526003908201526242555960e81b60408201526060019056fea26469706673582212203588c0332bc9214ae676d23968d28edb567374074c706f6f2b295cd50c22d6cf64736f6c63430008180033","opcodes":"PUSH1 0x80 PUSH1 0x40 MSTORE CALLVALUE DUP1 ISZERO PUSH2 0x10 JUMPI PUSH1 0x0 DUP1 REVERT JUMPDEST POP PUSH2 0x10E DUP1 PUSH2 0x20 PUSH1 0x0 CODECOPY PUSH1 0x0 RETURN INVALID PUSH1 0x80 PUSH1 0x40 MSTORE CALLVALUE DUP1 ISZERO PUSH1 0xF JUMPI PUSH1 0x0 DUP1 REVERT JUMPDEST POP PUSH1 0x4 CALLDATASIZE LT PUSH1 0x32 JUMPI PUSH1 0x0 CALLDATALOAD PUSH1 0xE0 SHR DUP1 PUSH4 0x45710074 EQ PUSH1 0x37 JUMPI DUP1 PUSH4 0xA6F2AE3A EQ PUSH1 0x3F JUMPI JUMPDEST PUSH1 0x0 DUP1 REVERT JUMPDEST PUSH1 0x3D PUSH1 0x45 JUMP JUMPDEST STOP JUMPDEST PUSH1 0x3D PUSH1 0x94 JUMP JUMPDEST PUSH32 0x716FC2BEB340C020954671F86FB23241FC9850CF6AB02F6D5D700386E34C2000 PUSH1 0x40 MLOAD PUSH1 0x8A SWAP1 PUSH1 0x20 DUP1 DUP3 MSTORE PUSH1 0x4 SWAP1 DUP3 ADD MSTORE PUSH4 0x14D15313 PUSH1 0xE2 SHL PUSH1 0x40 DUP3 ADD MSTORE PUSH1 0x60 ADD SWAP1 JUMP JUMPDEST PUSH1 0x40 MLOAD DUP1 SWAP2 SUB SWAP1 LOG1 JUMP JUMPDEST PUSH32 0x716FC2BEB340C020954671F86FB23241FC9850CF6AB02F6D5D700386E34C2000 PUSH1 0x40 MLOAD PUSH1 0x8A SWAP1 PUSH1 0x20 DUP1 DUP3 MSTORE PUSH1 0x3 SWAP1 DUP3 ADD MSTORE PUSH3 0x425559 PUSH1 0xE8 SHL PUSH1 0x40 DUP3 ADD MSTORE PUSH1 0x60 ADD SWAP1 JUMP INVALID LOG2 PUSH5 0x6970667358 0x22 SLT KECCAK256 CALLDATALOAD DUP9 0xC0 CALLER 0x2B 0xC9 0x21 BLOBBASEFEE 0xE6 PUSH23 0xD23968D28EDB567374074C706F6F2B295CD50C22D6CF64 PUSH20 0x6F6C634300081800330000000000000000000000 "},"methodIdentifiers":{"buy()":"a6f2ae3a","sell()":"45710074"}}}}}