{
  "_format": "hh-sol-artifact-1",
  "contractName": "ReputationRegistry",
  "sourceName": "contracts/ReputationRegistry.sol",
  "abi": [
    {
      "inputs": [],
      "name": "InvalidAddress",
      "type": "error"
    },
    {
      "inputs": [],
      "name": "UnauthorizedClient",
      "type": "error"
    },
    {
      "anonymous": false,
      "inputs": [
        {
          "indexed": true,
          "internalType": "address",
          "name": "client",
          "type": "address"
        },
        {
          "indexed": true,
          "internalType": "address",
          "name": "server",
          "type": "address"
        },
        {
          "indexed": false,
          "internalType": "string",
          "name": "feedbackURI",
          "type": "string"
        },
        {
          "indexed": false,
          "internalType": "uint64",
          "name": "timestamp",
          "type": "uint64"
        }
      ],
      "name": "FeedbackSubmitted",
      "type": "event"
    },
    {
      "inputs": [
        {
          "internalType": "address",
          "name": "server",
          "type": "address"
        }
      ],
      "name": "getFeedback",
      "outputs": [
        {
          "internalType": "string[]",
          "name": "feedbackURIs",
          "type": "string[]"
        }
      ],
      "stateMutability": "view",
      "type": "function"
    },
    {
      "inputs": [
        {
          "internalType": "address",
          "name": "server",
          "type": "address"
        }
      ],
      "name": "getFeedbackDetailed",
      "outputs": [
        {
          "components": [
            {
              "internalType": "address",
              "name": "client",
              "type": "address"
            },
            {
              "internalType": "string",
              "name": "feedbackURI",
              "type": "string"
            },
            {
              "internalType": "uint64",
              "name": "timestamp",
              "type": "uint64"
            }
          ],
          "internalType": "struct ReputationRegistry.FeedbackEntry[]",
          "name": "entries",
          "type": "tuple[]"
        }
      ],
      "stateMutability": "view",
      "type": "function"
    },
    {
      "inputs": [
        {
          "internalType": "address",
          "name": "client",
          "type": "address"
        },
        {
          "internalType": "address",
          "name": "server",
          "type": "address"
        },
        {
          "internalType": "string",
          "name": "feedbackURI",
          "type": "string"
        }
      ],
      "name": "submitFeedback",
      "outputs": [],
      "stateMutability": "nonpayable",
      "type": "function"
    }
  ],
  "bytecode": "0x608060405234801561001057600080fd5b506108e1806100206000396000f3fe608060405234801561001057600080fd5b50600436106100415760003560e01c80639bf5dd7514610046578063a8ce249d1461005b578063f72b162814610084575b600080fd5b6100596100543660046104ff565b6100a4565b005b61006e61006936600461058d565b610261565b60405161007b91906105f5565b60405180910390f35b61009761009236600461058d565b610393565b60405161007b919061068d565b6001600160a01b03841615806100c157506001600160a01b038316155b156100df5760405163e6c4247b60e01b815260040160405180910390fd5b336001600160a01b0385161461010857604051630ec1e4cd60e41b815260040160405180910390fd5b600080846001600160a01b03166001600160a01b031681526020019081526020016000206040518060600160405280866001600160a01b0316815260200184848080601f01602080910402602001604051908101604052809392919081815260200183838082843760009201829052509385525050504267ffffffffffffffff1660209283015283546001808201865594825290829020835160039092020180546001600160a01b0319166001600160a01b039092169190911781559082015191929091908201906101da9082610792565b5060408201518160020160006101000a81548167ffffffffffffffff021916908367ffffffffffffffff1602179055505050826001600160a01b0316846001600160a01b03167fee562e33a742af8195c0b863d0d204d1f1de4ca16850ff44a33bcc73a0288ce584844260405161025393929190610852565b60405180910390a350505050565b6001600160a01b038116600090815260208181526040808320805482518185028101850190935280835260609492939192909184015b8282101561038857600084815260209081902060408051606081019091526003850290910180546001600160a01b0316825260018101805492939192918401916102e090610707565b80601f016020809104026020016040519081016040528092919081815260200182805461030c90610707565b80156103595780601f1061032e57610100808354040283529160200191610359565b820191906000526020600020905b81548152906001019060200180831161033c57829003601f168201915b50505091835250506002919091015467ffffffffffffffff166020918201529082526001929092019101610297565b505050509050919050565b6001600160a01b038116600090815260208190526040902080546060919067ffffffffffffffff8111156103c9576103c96106f1565b6040519080825280602002602001820160405280156103fc57816020015b60608152602001906001900390816103e75790505b50915060005b81548110156104dc5781818154811061041d5761041d610895565b9060005260206000209060030201600101805461043990610707565b80601f016020809104026020016040519081016040528092919081815260200182805461046590610707565b80156104b25780601f10610487576101008083540402835291602001916104b2565b820191906000526020600020905b81548152906001019060200180831161049557829003601f168201915b50505050508382815181106104c9576104c9610895565b6020908102919091010152600101610402565b5050919050565b80356001600160a01b03811681146104fa57600080fd5b919050565b6000806000806060858703121561051557600080fd5b61051e856104e3565b935061052c602086016104e3565b9250604085013567ffffffffffffffff8082111561054957600080fd5b818701915087601f83011261055d57600080fd5b81358181111561056c57600080fd5b88602082850101111561057e57600080fd5b95989497505060200194505050565b60006020828403121561059f57600080fd5b6105a8826104e3565b9392505050565b6000815180845260005b818110156105d5576020818501810151868301820152016105b9565b506000602082860101526020601f19601f83011685010191505092915050565b600060208083018184528085518083526040925060408601915060408160051b87010184880160005b8381101561067f57888303603f19018552815180516001600160a01b0316845287810151606089860181905290610657828701826105af565b9289015167ffffffffffffffff1695890195909552509487019492509086019060010161061e565b509098975050505050505050565b600060208083016020845280855180835260408601915060408160051b87010192506020870160005b828110156106e457603f198886030184526106d28583516105af565b945092850192908501906001016106b6565b5092979650505050505050565b634e487b7160e01b600052604160045260246000fd5b600181811c9082168061071b57607f821691505b60208210810361073b57634e487b7160e01b600052602260045260246000fd5b50919050565b601f82111561078d576000816000526020600020601f850160051c8101602086101561076a5750805b601f850160051c820191505b8181101561078957828155600101610776565b5050505b505050565b815167ffffffffffffffff8111156107ac576107ac6106f1565b6107c0816107ba8454610707565b84610741565b602080601f8311600181146107f557600084156107dd5750858301515b600019600386901b1c1916600185901b178555610789565b600085815260208120601f198616915b8281101561082457888601518255948401946001909101908401610805565b50858210156108425787850151600019600388901b60f8161c191681555b5050505050600190811b01905550565b604081528260408201528284606083013760006060848301015260006060601f19601f860116830101905067ffffffffffffffff83166020830152949350505050565b634e487b7160e01b600052603260045260246000fdfea2646970667358221220d85101ea0a2ab883d5336bbe778180df96d4d1db826dd16d7efa9a5e2e0b903c64736f6c63430008180033",
  "linkReferences": {},
  "deployedLinkReferences": {}
}