{
  "_format": "hh-sol-artifact-1",
  "contractName": "ValidationRegistry",
  "sourceName": "contracts/ValidationRegistry.sol",
  "abi": [
    {
      "inputs": [
        {
          "internalType": "address",
          "name": "validator_",
          "type": "address"
        }
      ],
      "stateMutability": "nonpayable",
      "type": "constructor"
    },
    {
      "inputs": [],
      "name": "AlreadyResponded",
      "type": "error"
    },
    {
      "inputs": [],
      "name": "InvalidServer",
      "type": "error"
    },
    {
      "inputs": [],
      "name": "InvalidValidator",
      "type": "error"
    },
    {
      "inputs": [],
      "name": "UnknownRequest",
      "type": "error"
    },
    {
      "anonymous": false,
      "inputs": [
        {
          "indexed": true,
          "internalType": "uint256",
          "name": "requestId",
          "type": "uint256"
        },
        {
          "indexed": true,
          "internalType": "address",
          "name": "requester",
          "type": "address"
        },
        {
          "indexed": true,
          "internalType": "address",
          "name": "server",
          "type": "address"
        },
        {
          "indexed": false,
          "internalType": "bytes32",
          "name": "dataHash",
          "type": "bytes32"
        },
        {
          "indexed": false,
          "internalType": "string",
          "name": "validationType",
          "type": "string"
        }
      ],
      "name": "ValidationRequested",
      "type": "event"
    },
    {
      "anonymous": false,
      "inputs": [
        {
          "indexed": true,
          "internalType": "uint256",
          "name": "requestId",
          "type": "uint256"
        },
        {
          "indexed": true,
          "internalType": "address",
          "name": "validator",
          "type": "address"
        },
        {
          "indexed": false,
          "internalType": "bool",
          "name": "verified",
          "type": "bool"
        },
        {
          "indexed": false,
          "internalType": "string",
          "name": "proofURI",
          "type": "string"
        }
      ],
      "name": "ValidationResponded",
      "type": "event"
    },
    {
      "inputs": [],
      "name": "authorizedValidator",
      "outputs": [
        {
          "internalType": "address",
          "name": "",
          "type": "address"
        }
      ],
      "stateMutability": "view",
      "type": "function"
    },
    {
      "inputs": [
        {
          "internalType": "uint256",
          "name": "requestId",
          "type": "uint256"
        }
      ],
      "name": "getValidation",
      "outputs": [
        {
          "internalType": "bool",
          "name": "verified",
          "type": "bool"
        },
        {
          "internalType": "string",
          "name": "proofURI",
          "type": "string"
        },
        {
          "internalType": "bool",
          "name": "responded",
          "type": "bool"
        },
        {
          "internalType": "address",
          "name": "validator",
          "type": "address"
        },
        {
          "internalType": "uint64",
          "name": "timestamp",
          "type": "uint64"
        }
      ],
      "stateMutability": "view",
      "type": "function"
    },
    {
      "inputs": [
        {
          "internalType": "uint256",
          "name": "requestId",
          "type": "uint256"
        }
      ],
      "name": "getValidationRequest",
      "outputs": [
        {
          "internalType": "address",
          "name": "requester",
          "type": "address"
        },
        {
          "internalType": "address",
          "name": "server",
          "type": "address"
        },
        {
          "internalType": "bytes32",
          "name": "dataHash",
          "type": "bytes32"
        },
        {
          "internalType": "string",
          "name": "validationType",
          "type": "string"
        },
        {
          "internalType": "bool",
          "name": "exists",
          "type": "bool"
        }
      ],
      "stateMutability": "view",
      "type": "function"
    },
    {
      "inputs": [
        {
          "internalType": "uint256",
          "name": "requestId",
          "type": "uint256"
        }
      ],
      "name": "isVerified",
      "outputs": [
        {
          "internalType": "bool",
          "name": "",
          "type": "bool"
        }
      ],
      "stateMutability": "view",
      "type": "function"
    },
    {
      "inputs": [],
      "name": "nextRequestId",
      "outputs": [
        {
          "internalType": "uint256",
          "name": "",
          "type": "uint256"
        }
      ],
      "stateMutability": "view",
      "type": "function"
    },
    {
      "inputs": [
        {
          "internalType": "address",
          "name": "server",
          "type": "address"
        },
        {
          "internalType": "bytes32",
          "name": "dataHash",
          "type": "bytes32"
        },
        {
          "internalType": "string",
          "name": "validationType",
          "type": "string"
        }
      ],
      "name": "requestValidation",
      "outputs": [
        {
          "internalType": "uint256",
          "name": "requestId",
          "type": "uint256"
        }
      ],
      "stateMutability": "nonpayable",
      "type": "function"
    },
    {
      "inputs": [
        {
          "internalType": "uint256",
          "name": "requestId",
          "type": "uint256"
        },
        {
          "internalType": "address",
          "name": "validator",
          "type": "address"
        },
        {
          "internalType": "string",
          "name": "proofURI",
          "type": "string"
        },
        {
          "internalType": "bool",
          "name": "verified",
          "type": "bool"
        }
      ],
      "name": "submitValidationResponse",
      "outputs": [],
      "stateMutability": "nonpayable",
      "type": "function"
    }
  ],
  "bytecode": "0x60a0604052600160005534801561001557600080fd5b50604051610c59380380610c598339810160408190526100349161006c565b6001600160a01b03811661005b57604051631a0a9b9f60e21b815260040160405180910390fd5b6001600160a01b031660805261009c565b60006020828403121561007e57600080fd5b81516001600160a01b038116811461009557600080fd5b9392505050565b608051610b956100c46000396000818160870152818161041901526104430152610b956000f3fe608060405234801561001057600080fd5b506004361061007d5760003560e01c80636a84a9851161005b5780636a84a9851461010a5780638392ae5c1461011357806398e77c4814610137578063d16c8daa1461014c57600080fd5b806323adb02c1461008257806337b6d96b146100c65780633b2430f4146100e9575b600080fd5b6100a97f000000000000000000000000000000000000000000000000000000000000000081565b6040516001600160a01b0390911681526020015b60405180910390f35b6100d96100d4366004610748565b610170565b60405190151581526020016100bd565b6100fc6100f73660046107c6565b61019c565b6040519081526020016100bd565b6100fc60005481565b610126610121366004610748565b61031b565b6040516100bd959493929190610866565b61014a6101453660046108b1565b61040e565b005b61015f61015a366004610748565b61065e565b6040516100bd959493929190610928565b6000818152600260205260408120805460ff16801561019557508054610100900460ff165b9392505050565b60006001600160a01b0385166101c5576040516310d452af60e01b815260040160405180910390fd5b506000805490600190806101d9838561096f565b925050819055506040518060a00160405280336001600160a01b03168152602001866001600160a01b0316815260200185815260200184848080601f0160208091040260200160405190810160405280939291908181526020018383808284376000920182905250938552505060016020938401819052858352808452604092839020855181546001600160a01b03199081166001600160a01b03928316178355958701519282018054909616921691909117909355508201516002820155606082015160038201906102ac9082610a37565b50608091909101516004909101805460ff19169115159190911790556040516001600160a01b03861690339083907fbcaca34a4ca59c3ce59a1b7b174d3e31a2d581ce36bb5356e7271c81d901757a9061030b90899089908990610b20565b60405180910390a4949350505050565b600081815260026020819052604082208054918101546001820180546060948694859485949193610100840460ff9081169490811692620100009091046001600160a01b03169167ffffffffffffffff90911690849061037a906109ac565b80601f01602080910402602001604051908101604052809291908181526020018280546103a6906109ac565b80156103f35780601f106103c8576101008083540402835291602001916103f3565b820191906000526020600020905b8154815290600101906020018083116103d657829003601f168201915b50505050509350955095509550955095505091939590929450565b336001600160a01b037f00000000000000000000000000000000000000000000000000000000000000001614158061047857507f00000000000000000000000000000000000000000000000000000000000000006001600160a01b0316846001600160a01b031614155b1561049657604051631a0a9b9f60e21b815260040160405180910390fd5b6000858152600160205260409020600481015460ff166104c957604051636d08029760e01b815260040160405180910390fd5b6000868152600260205260409020805460ff16156104fa5760405163251aba6960e11b815260040160405180910390fd5b6040518060a001604052806001151581526020018415158152602001876001600160a01b0316815260200186868080601f016020809104026020016040519081016040528093929190818152602001838380828437600092018290525093855250505067ffffffffffffffff4216602092830152898152600282526040908190208351815493850151928501516001600160a01b0316620100000262010000600160b01b03199315156101000261ff00199215159290921661ffff19909516949094171791909116919091178155606082015160018201906105dc9082610a37565b5060808201518160020160006101000a81548167ffffffffffffffff021916908367ffffffffffffffff160217905550905050856001600160a01b0316877faf0e358acd32c2f0ba013208feadb21321472fa6512e9c93445f6b935b20fbf685888860405161064d93929190610b43565b60405180910390a350505050505050565b600081815260016020819052604082208054918101546002820154600483015460038401805487968796606096889691956001600160a01b0393841695939091169391929160ff9091169082906106b4906109ac565b80601f01602080910402602001604051908101604052809291908181526020018280546106e0906109ac565b801561072d5780601f106107025761010080835404028352916020019161072d565b820191906000526020600020905b81548152906001019060200180831161071057829003601f168201915b50505050509150955095509550955095505091939590929450565b60006020828403121561075a57600080fd5b5035919050565b80356001600160a01b038116811461077857600080fd5b919050565b60008083601f84011261078f57600080fd5b50813567ffffffffffffffff8111156107a757600080fd5b6020830191508360208285010111156107bf57600080fd5b9250929050565b600080600080606085870312156107dc57600080fd5b6107e585610761565b935060208501359250604085013567ffffffffffffffff81111561080857600080fd5b6108148782880161077d565b95989497509550505050565b6000815180845260005b818110156108465760208185018101518683018201520161082a565b506000602082860101526020601f19601f83011685010191505092915050565b851515815260a06020820152600061088160a0830187610820565b9415156040830152506001600160a01b0392909216606083015267ffffffffffffffff1660809091015292915050565b6000806000806000608086880312156108c957600080fd5b853594506108d960208701610761565b9350604086013567ffffffffffffffff8111156108f557600080fd5b6109018882890161077d565b9094509250506060860135801515811461091a57600080fd5b809150509295509295909350565b6001600160a01b038681168252851660208201526040810184905260a06060820181905260009061095b90830185610820565b905082151560808301529695505050505050565b8082018082111561099057634e487b7160e01b600052601160045260246000fd5b92915050565b634e487b7160e01b600052604160045260246000fd5b600181811c908216806109c057607f821691505b6020821081036109e057634e487b7160e01b600052602260045260246000fd5b50919050565b601f821115610a32576000816000526020600020601f850160051c81016020861015610a0f5750805b601f850160051c820191505b81811015610a2e57828155600101610a1b565b5050505b505050565b815167ffffffffffffffff811115610a5157610a51610996565b610a6581610a5f84546109ac565b846109e6565b602080601f831160018114610a9a5760008415610a825750858301515b600019600386901b1c1916600185901b178555610a2e565b600085815260208120601f198616915b82811015610ac957888601518255948401946001909101908401610aaa565b5085821015610ae75787850151600019600388901b60f8161c191681555b5050505050600190811b01905550565b81835281816020850137506000828201602090810191909152601f909101601f19169091010190565b838152604060208201526000610b3a604083018486610af7565b95945050505050565b8315158152604060208201526000610b3a604083018486610af756fea2646970667358221220691b5d69c4b8a1535c9d8ab802921e824b3c8eadde0e7643654fef30cd9b796364736f6c63430008180033",
  "linkReferences": {},
  "deployedLinkReferences": {}
}