{
  "_format": "hh-sol-artifact-1",
  "contractName": "MockTradeExecutorV2",
  "sourceName": "contracts/MockTradeExecutorV2.sol",
  "abi": [
    {
      "inputs": [
        {
          "internalType": "address",
          "name": "oracleAddress",
          "type": "address"
        },
        {
          "internalType": "address",
          "name": "validationRegistryAddress",
          "type": "address"
        }
      ],
      "stateMutability": "nonpayable",
      "type": "constructor"
    },
    {
      "inputs": [],
      "name": "InvalidAddress",
      "type": "error"
    },
    {
      "inputs": [],
      "name": "NotOracle",
      "type": "error"
    },
    {
      "inputs": [],
      "name": "ValidationAlreadyConsumed",
      "type": "error"
    },
    {
      "inputs": [],
      "name": "ValidationNotVerified",
      "type": "error"
    },
    {
      "anonymous": false,
      "inputs": [
        {
          "indexed": false,
          "internalType": "string",
          "name": "action",
          "type": "string"
        },
        {
          "indexed": true,
          "internalType": "uint256",
          "name": "validationRequestId",
          "type": "uint256"
        },
        {
          "indexed": true,
          "internalType": "address",
          "name": "executor",
          "type": "address"
        }
      ],
      "name": "TradeExecuted",
      "type": "event"
    },
    {
      "inputs": [
        {
          "internalType": "uint256",
          "name": "validationRequestId",
          "type": "uint256"
        }
      ],
      "name": "buy",
      "outputs": [],
      "stateMutability": "nonpayable",
      "type": "function"
    },
    {
      "inputs": [
        {
          "internalType": "uint256",
          "name": "",
          "type": "uint256"
        }
      ],
      "name": "consumedValidationRequests",
      "outputs": [
        {
          "internalType": "bool",
          "name": "",
          "type": "bool"
        }
      ],
      "stateMutability": "view",
      "type": "function"
    },
    {
      "inputs": [],
      "name": "oracle",
      "outputs": [
        {
          "internalType": "address",
          "name": "",
          "type": "address"
        }
      ],
      "stateMutability": "view",
      "type": "function"
    },
    {
      "inputs": [
        {
          "internalType": "uint256",
          "name": "validationRequestId",
          "type": "uint256"
        }
      ],
      "name": "sell",
      "outputs": [],
      "stateMutability": "nonpayable",
      "type": "function"
    },
    {
      "inputs": [],
      "name": "validationRegistry",
      "outputs": [
        {
          "internalType": "contract IValidationRegistry",
          "name": "",
          "type": "address"
        }
      ],
      "stateMutability": "view",
      "type": "function"
    }
  ],
  "bytecode": "0x60c060405234801561001057600080fd5b506040516104e33803806104e383398101604081905261002f9161009d565b6001600160a01b038216158061004c57506001600160a01b038116155b1561006a5760405163e6c4247b60e01b815260040160405180910390fd5b6001600160a01b039182166080521660a0526100d0565b80516001600160a01b038116811461009857600080fd5b919050565b600080604083850312156100b057600080fd5b6100b983610081565b91506100c760208401610081565b90509250929050565b60805160a0516103db61010860003960008181606101526102b801526000818160d80152818161012d01526101da01526103db6000f3fe608060405234801561001057600080fd5b50600436106100575760003560e01c80634c6b993a1461005c5780637763f1de146100a05780637dc0d1d0146100d3578063d96a094a146100fa578063e4849b321461010f575b600080fd5b6100837f000000000000000000000000000000000000000000000000000000000000000081565b6040516001600160a01b0390911681526020015b60405180910390f35b6100c36100ae366004610363565b60006020819052908152604090205460ff1681565b6040519015158152602001610097565b6100837f000000000000000000000000000000000000000000000000000000000000000081565b61010d610108366004610363565b610122565b005b61010d61011d366004610363565b6101cf565b336001600160a01b037f0000000000000000000000000000000000000000000000000000000000000000161461016b57604051631bc2178f60e01b815260040160405180910390fd5b61017481610272565b336001600160a01b0316817f9dfeeeceb399e16f14bc424bcfdeae738d9b6dfe9ca1d658d32ad4c1dbeb0baa6040516101c49060208082526003908201526242555960e81b604082015260600190565b60405180910390a350565b336001600160a01b037f0000000000000000000000000000000000000000000000000000000000000000161461021857604051631bc2178f60e01b815260040160405180910390fd5b61022181610272565b336001600160a01b0316817f9dfeeeceb399e16f14bc424bcfdeae738d9b6dfe9ca1d658d32ad4c1dbeb0baa6040516101c49060208082526004908201526314d1531360e21b604082015260600190565b60008181526020819052604090205460ff16156102a257604051630f0aa29d60e11b815260040160405180910390fd5b6040516337b6d96b60e01b8152600481018290527f00000000000000000000000000000000000000000000000000000000000000006001600160a01b0316906337b6d96b90602401602060405180830381865afa158015610307573d6000803e3d6000fd5b505050506040513d601f19601f8201168201806040525081019061032b919061037c565b61034857604051637787415d60e01b815260040160405180910390fd5b6000908152602081905260409020805460ff19166001179055565b60006020828403121561037557600080fd5b5035919050565b60006020828403121561038e57600080fd5b8151801515811461039e57600080fd5b939250505056fea264697066735822122039daaf02066c0ad207ed58c501e0c1eb3128e8186d0e170996111b0c0a1ee93564736f6c63430008180033",
  "linkReferences": {},
  "deployedLinkReferences": {}
}